{
  "_format": "hh-sol-artifact-1",
  "contractName": "TokenSale",
  "sourceName": "contracts/TokenSaleContract.sol",
  "abi": [
    {
      "inputs": [
        {
          "internalType": "contract HemTokenLaunch",
          "name": "_tokenContract",
          "type": "address"
        },
        {
          "internalType": "uint256",
          "name": "_tokenPrice",
          "type": "uint256"
        }
      ],
      "stateMutability": "nonpayable",
      "type": "constructor"
    },
    {
      "anonymous": false,
      "inputs": [
        {
          "indexed": false,
          "internalType": "address",
          "name": "_buyer",
          "type": "address"
        },
        {
          "indexed": false,
          "internalType": "uint256",
          "name": "_amount",
          "type": "uint256"
        }
      ],
      "name": "Sell",
      "type": "event"
    },
    {
      "inputs": [
        {
          "internalType": "uint256",
          "name": "_numberOfTokens",
          "type": "uint256"
        }
      ],
      "name": "buyToken",
      "outputs": [],
      "stateMutability": "payable",
      "type": "function"
    },
    {
      "inputs": [],
      "name": "endSale",
      "outputs": [],
      "stateMutability": "nonpayable",
      "type": "function"
    },
    {
      "inputs": [],
      "name": "tokenContract",
      "outputs": [
        {
          "internalType": "contract HemTokenLaunch",
          "name": "",
          "type": "address"
        }
      ],
      "stateMutability": "view",
      "type": "function"
    },
    {
      "inputs": [],
      "name": "tokenPrice",
      "outputs": [
        {
          "internalType": "uint256",
          "name": "",
          "type": "uint256"
        }
      ],
      "stateMutability": "view",
      "type": "function"
    },
    {
      "inputs": [],
      "name": "tokenSold",
      "outputs": [
        {
          "internalType": "uint256",
          "name": "",
          "type": "uint256"
        }
      ],
      "stateMutability": "view",
      "type": "function"
    }
  ],
  "bytecode": "0x608060405234801561001057600080fd5b50604051610b42380380610b428339818101604052810190610032919061016c565b336000806101000a81548173ffffffffffffffffffffffffffffffffffffffff021916908373ffffffffffffffffffffffffffffffffffffffff16021790555081600160006101000a81548173ffffffffffffffffffffffffffffffffffffffff021916908373ffffffffffffffffffffffffffffffffffffffff1602179055508060028190555050506101ac565b600080fd5b600073ffffffffffffffffffffffffffffffffffffffff82169050919050565b60006100f1826100c6565b9050919050565b6000610103826100e6565b9050919050565b610113816100f8565b811461011e57600080fd5b50565b6000815190506101308161010a565b92915050565b6000819050919050565b61014981610136565b811461015457600080fd5b50565b60008151905061016681610140565b92915050565b60008060408385031215610183576101826100c1565b5b600061019185828601610121565b92505060206101a285828601610157565b9150509250929050565b610987806101bb6000396000f3fe60806040526004361061004a5760003560e01c80632d296bf11461004f578063380d831b1461006b578063519ee19e1461008257806355a373d6146100ad5780637ff9b596146100d8575b600080fd5b610069600480360381019061006491906105d2565b610103565b005b34801561007757600080fd5b506100806102d3565b005b34801561008e57600080fd5b5061009761052e565b6040516100a4919061060e565b60405180910390f35b3480156100b957600080fd5b506100c2610534565b6040516100cf91906106a8565b60405180910390f35b3480156100e457600080fd5b506100ed61055a565b6040516100fa919061060e565b60405180910390f35b61010f81600254610560565b341461011a57600080fd5b80600160009054906101000a900473ffffffffffffffffffffffffffffffffffffffff1673ffffffffffffffffffffffffffffffffffffffff166370a08231306040518263ffffffff1660e01b815260040161017691906106e4565b602060405180830381865afa158015610193573d6000803e3d6000fd5b505050506040513d601f19601f820116820180604052508101906101b79190610714565b10156101c257600080fd5b600160009054906101000a900473ffffffffffffffffffffffffffffffffffffffff1673ffffffffffffffffffffffffffffffffffffffff1663a9059cbb33670de0b6b3a7640000846102159190610770565b6040518363ffffffff1660e01b81526004016102329291906107b2565b6020604051808303816000875af1158015610251573d6000803e3d6000fd5b505050506040513d601f19601f820116820180604052508101906102759190610813565b61027e57600080fd5b80600360008282546102909190610840565b925050819055507f5e5e995ce3133561afceaa51a9a154d5db228cd7525d34df5185582c18d3df0933826040516102c89291906107b2565b60405180910390a150565b60008054906101000a900473ffffffffffffffffffffffffffffffffffffffff1673ffffffffffffffffffffffffffffffffffffffff163373ffffffffffffffffffffffffffffffffffffffff1614610361576040517f08c379a0000000000000000000000000000000000000000000000000000000008152600401610358906108d1565b60405180910390fd5b600160009054906101000a900473ffffffffffffffffffffffffffffffffffffffff1673ffffffffffffffffffffffffffffffffffffffff1663a9059cbb60008054906101000a900473ffffffffffffffffffffffffffffffffffffffff16600160009054906101000a900473ffffffffffffffffffffffffffffffffffffffff1673ffffffffffffffffffffffffffffffffffffffff166370a08231306040518263ffffffff1660e01b815260040161041b91906106e4565b602060405180830381865afa158015610438573d6000803e3d6000fd5b505050506040513d601f19601f8201168201806040525081019061045c9190610714565b6040518363ffffffff1660e01b81526004016104799291906107b2565b6020604051808303816000875af1158015610498573d6000803e3d6000fd5b505050506040513d601f19601f820116820180604052508101906104bc9190610813565b6104c557600080fd5b60008054906101000a900473ffffffffffffffffffffffffffffffffffffffff1673ffffffffffffffffffffffffffffffffffffffff166108fc479081150290604051600060405180830381858888f1935050505015801561052b573d6000803e3d6000fd5b50565b60035481565b600160009054906101000a900473ffffffffffffffffffffffffffffffffffffffff1681565b60025481565b6000808214806105885750828283856105799190610770565b9250826105869190610920565b145b61059157600080fd5b92915050565b600080fd5b6000819050919050565b6105af8161059c565b81146105ba57600080fd5b50565b6000813590506105cc816105a6565b92915050565b6000602082840312156105e8576105e7610597565b5b60006105f6848285016105bd565b91505092915050565b6106088161059c565b82525050565b600060208201905061062360008301846105ff565b92915050565b600073ffffffffffffffffffffffffffffffffffffffff82169050919050565b6000819050919050565b600061066e61066961066484610629565b610649565b610629565b9050919050565b600061068082610653565b9050919050565b600061069282610675565b9050919050565b6106a281610687565b82525050565b60006020820190506106bd6000830184610699565b92915050565b60006106ce82610629565b9050919050565b6106de816106c3565b82525050565b60006020820190506106f960008301846106d5565b92915050565b60008151905061070e816105a6565b92915050565b60006020828403121561072a57610729610597565b5b6000610738848285016106ff565b91505092915050565b7f4e487b7100000000000000000000000000000000000000000000000000000000600052601160045260246000fd5b600061077b8261059c565b91506107868361059c565b92508282026107948161059c565b915082820484148315176107ab576107aa610741565b5b5092915050565b60006040820190506107c760008301856106d5565b6107d460208301846105ff565b9392505050565b60008115159050919050565b6107f0816107db565b81146107fb57600080fd5b50565b60008151905061080d816107e7565b92915050565b60006020828403121561082957610828610597565b5b6000610837848285016107fe565b91505092915050565b600061084b8261059c565b91506108568361059c565b925082820190508082111561086e5761086d610741565b5b92915050565b600082825260208201905092915050565b7f596f7520617265206e6f74207468652061646d696e0000000000000000000000600082015250565b60006108bb601583610874565b91506108c682610885565b602082019050919050565b600060208201905081810360008301526108ea816108ae565b9050919050565b7f4e487b7100000000000000000000000000000000000000000000000000000000600052601260045260246000fd5b600061092b8261059c565b91506109368361059c565b925082610946576109456108f1565b5b82820490509291505056fea2646970667358221220151b4d609ac29d737612dd2ecc702abdcfe6df72d8df1c0c18c58317e51b186564736f6c63430008120033",
  "linkReferences": {},
  "deployedLinkReferences": {}
}